:100000000C9462000C948A000C948A000C948A0070
:100010000C948A000C948A000C948A000C948A0038
:100020000C948A000C948A000C948A000C94BF06ED
:100030000C948A000C948A000C948A000C948A0018
:100040000C9475060C948A000C9443060C941D06BF
:100050000C948A000C948A000C948A000C948A00F8
:100060000C948A000C948A000000000024002700F1
:100070002A0000000000250028002B0000000000DE
:1000800023002600290004040404040404040202DA
:100090000202020203030303030301020408102007
:1000A0004080010204081020010204081020000012
:1000B0000008000201000003040700000000000027
:1000C0000000800711241FBECFEFD8E0DEBFCDBFF8
:1000D00011E0A0E0B1E0EEE6FBE102C005900D9278
:1000E000AA38B107D9F723E0AAE8B1E001C01D9210
:1000F000AA3AB207E1F710E0C2E6D0E004C02197C7
:10010000FE010E94AA0DC136D107C9F70E94D50889
:100110000C94B50D0C940000E0913502F09136027C
:100120000190F081E02D682F85E392E00994CF9251
:10013000DF92EF92FF920F931F93CF93DF936C01A7
:100140007A018B01C0E0D0E0CE15DF0589F0D8013F
:100150006D918D01D601ED91FC910190F081E02D22
:10016000C6010995892B11F47E0102C02196ECCFBE
:10017000C701DF91CF911F910F91FF90EF90DF901A
:10018000CF900895089580E090E00895FC01538D8C
:10019000448D252F30E0842F90E0821B930B541761
:1001A00010F0CF96089501970895FC01918D828DEE
:1001B000981761F0828DDF01A80FB11D5D968C91BB
:1001C000928D9F5F9F73928F90E008958FEF9FEFC6
:1001D0000895FC01918D828D981731F0828DE80F82
:1001E000F11D858D90E008958FEF9FEF0895FC013C
:1001F000918D228D892F90E0805C9F4F821B910909
:100200008F739927089585E392E00E94F70021E01B
:10021000892B09F420E0822F0895FC01848DDF01F1
:10022000A80FB11DA35ABF4F2C91848D90E0019669
:100230008F739927848FA689B7892C93A089B18958
:100240008C9180648C93938D848D981306C0028862
:10025000F389E02D80818F7D80830895EF92FF9256
:100260000F931F93CF93DF93EC0181E0888F9B8DD9
:100270008C8D981305C0E889F989808185FD24C09B
:10028000F62E0B8D10E00F5F1F4F0F731127E02E1E
:100290008C8DE8120CC00FB607FCFACFE889F989FB
:1002A000808185FFF5CFCE010E940D01F1CF8B8DAE
:1002B000FE01E80FF11DE35AFF4FF0820B8FEA8930
:1002C000FB898081806207C0EE89FF896083E889AD
:1002D000F98980818064808381E090E0DF91CF9113
:1002E0001F910F91FF90EF900895CF93DF93EC0152
:1002F000888D8823C9F0EA89FB89808185FD05C046
:10030000A889B9898C9186FD0FC00FB607FCF5CF7F
:10031000808185FFF2CFA889B9898C9185FFEDCFC7
:10032000CE010E940D01E7CFDF91CF91089580E0CB
:1003300090E0892B29F00E94030181110C940000A8
:100340000895833081F028F4813099F08230A1F053
:1003500008958730A9F08830B9F08430D1F48091C5
:1003600080008F7D03C0809180008F778093800014
:10037000089584B58F7702C084B58F7D84BD0895BC
:100380008091B0008F7703C08091B0008F7D809303
:10039000B0000895CF93DF93282F30E0F901E255A4
:1003A000FF4F8491F901E656FF4FD491F901EA57C6
:1003B000FF4FC491CC2391F081110E94A101EC2F39
:1003C000F0E0EE0FFF1FE458FF4FA591B491EC91C0
:1003D000ED2381E090E021F480E002C080E090E035
:1003E000DF91CF9108951F93CF93DF93282F30E0B3
:1003F000F901E255FF4F8491F901E656FF4FD49180
:10040000F901EA57FF4FC491CC23C9F0162F81118F
:100410000E94A101EC2FF0E0EE0FFF1FEE58FF4FFE
:10042000A591B4918FB7F894111105C09C91ED2F4F
:10043000E095E92302C0EC91ED2BEC938FBFDF91A7
:10044000CF911F910895CF93DF9390E0FC01E65682
:10045000FF4F2491FC01EA57FF4F8491882361F1FB
:1004600090E0880F991FFC01E859FF4FC591D49186
:10047000FC01EE58FF4FA591B491611109C09FB7DF
:10048000F8948881209582238883EC912E230BC0D9
:10049000623061F49FB7F8943881822F809583236E
:1004A0008883EC912E2B2C939FBF06C08FB7F894B6
:1004B000E8812E2B28838FBFDF91CF9108958E3056
:1004C00008F08E508770806480937C0080917A0061
:1004D000806480937A0080917A0086FDFCCF8091C1
:1004E00078002091790090E0922B08953FB7F8941E
:1004F0008091910190919201A0919301B09194010A
:1005000026B5A89B05C02F3F19F00196A11DB11D6E
:100510003FBFBA2FA92F982F8827820F911DA11DA9
:10052000B11DBC01CD0142E0660F771F881F991FE6
:100530004A95D1F708958F929F92AF92BF92CF9232
:10054000DF92EF92FF926B017C010E9476024B01D9
:100550005C01C114D104E104F104F1F00E947602BF
:10056000DC01CB0188199909AA09BB09883E93408F
:10057000A105B10570F321E0C21AD108E108F10824
:1005800088EE880E83E0981EA11CB11CC114D10412
:10059000E104F10419F7DDCFFF90EF90DF90CF90E9
:1005A000BF90AF909F908F900895CF93DF93EC0111
:1005B0008C810E945F022E813F81821793076CF02D
:1005C0008C810E945F0228853985281739072CF015
:1005D0008C81DF91CF910C945F02C901DF91CF91A3
:1005E00008952F923F924F925F926F927F928F92D7
:1005F0009F92AF92BF92CF92DF92EF92FF920F93B2
:100600001F93CF93DF9300D000D000D0CDB7DEB7DB
:100610009E838D830E94D502BC01990F880B990B94
:100620000E947C0C2B013C01ED81FE816685778563
:10063000072E000C880B990B0E947C0C6B017C012F
:10064000ED81FE8164857585072E000C880B990B62
:100650000E947C0C4B015C01ED81FE8160857185FF
:10066000072E000C880B990B0E947C0C69837A83FF
:100670008B839C83ED81FE8166817781072E000C40
:10068000880B990B0E947C0C1B018C0129813A81FB
:100690004B815C81B201C3010E942C0D18165CF0E5
:1006A0009101A801B201C3010E94CD0B87FF07C0D1
:1006B0002101380104C049805A806B807C809101FF
:1006C000A801B201C3010E94600B2B013C01910102
:1006D000A80169817A818B819C810E94600B9B01BA
:1006E000AC01C301B2010E94D20B2B013C019B0162
:1006F000AC0160E070E080E89FE30E94600B9B012A
:10070000AC01C501B4010E94310D4B015C01A30194
:100710009201C701B6010E94310D9B01AC01C501D8
:10072000B4010E94610B0E94440C072E000C880B40
:10073000990B0E947C0CED81FE8163A774A785A7AD
:1007400096A767A770AB81AB92AB26960FB6F894CD
:10075000DEBF0FBECDBFDF91CF911F910F91FF90F4
:10076000EF90DF90CF90BF90AF909F908F907F9051
:100770006F905F904F903F902F9008951F93CF936D
:10078000DF93EC011A8589818C3008F04EC061E05E
:10079000812F0E9423028981E82FF0E09F01220F20
:1007A000331FE20FF31FEB56FE4F1F739081907CB7
:1007B000192B10831A821B826CE00E949E0D9CE014
:1007C000899FB001112440E050E09A01260F371FA5
:1007D000F901EE0FFF1F2E0F3F1FF901EB56FE4FE1
:1007E000908196FD16C04F5F5F4F4C30510569F701
:1007F00081110FC01092800082E0809381001092DE
:10080000850010928400B19A80916F00826080937D
:100810006F00E981F0E0CF01880F991FE80FF91F01
:10082000EB56FE4F808180648083DF91CF911F91D2
:100830000895FC0190819C3080F5818128E830E0AA
:10084000281B310987FD3395220F331F220F331FD9
:10085000621773077CF0828128E532E0281B31099A
:1008600087FD3395220F331F220F331F6217730743
:100870000CF49B0122503109220F331F4FB7F8941B
:10088000892F90E0FC01EE0FFF1F8E0F9F1FFC01D0
:10089000EB56FE4F328321834FBF0895FC019091A8
:1008A0008B019C30A0F481E0890F80938B019083B1
:1008B000892F90E0FC01EE0FFF1F8E0F9F1FFC01A0
:1008C000EB56FE4F88EB9BE09283818308958FEF78
:1008D0008083089584E793E00E94F1028EE393E021
:1008E0000E94F10288E093E00E94F10282ED92E022
:1008F0000C94F102009769F0FC0101900020E9F7E7
:100900003197AF01481B590BBC0185E392E00C9471
:10091000970080E090E008950C947A04CF93DF93E1
:10092000EC018AA5882351F082E191E00E948C04B9
:1009300088810E948C008FE191E009C082E191E002
:100940000E948C0488810E948C008BE191E00E94BF
:100950008C0489E191E00E948C048AA5DF91CF91FB
:1009600008952F923F924F925F926F927F928F9253
:100970009F92AF92BF92CF92DF92EF92FF920F932E
:100980001F93CF93DF93EC018B0188A599A59E015E
:100990002F5F3F4F790104970CF09BC0CE010E945E
:1009A000D5029801281B390B6EA17FA137FF0BC020
:1009B000072E000C880B990B0E947C0C2889398922
:1009C0004A895B890AC0072E000C880B990B0E948C
:1009D0007C0C2C893D894E895F890E94310D9B01D9
:1009E000AC016BA57CA58DA59EA50E94610B6BA794
:1009F0007CA78DA79EA7888C998CAA8CBB8C2BA4D6
:100A00003CA44DA45EA46C857D85072E000C880B4C
:100A1000990B0E947C0C3B016C019B01AC01B10164
:100A2000C2010E94CD0B87FD14C06E857F85072E05
:100A3000000C880B990B0E947C0C3B016C019B0104
:100A4000AC01B101C2010E942C0D181614F0310145
:100A500062019301A601C501B4010E94310D2B0171
:100A60003C01A501940160E070E080E89FE30E94F2
:100A7000600B2FA538A949A95AA90E94310D9B01E5
:100A8000AC01C301B2010E94610B6FA778AB89ABC7
:100A90009AAB0E94440CC7010E941904CE010E9427
:100AA000D502B801681B790B7FA36EA377FF03C043
:100AB0007195619571098C8D9D8D8617970734F01E
:100AC00088A599A5019699A788A72FC019A618A649
:100AD0002CC06FA578A989A99AA90E94440CC701C6
:100AE0000E94190481E08AA782E191E00E948C04AF
:100AF00088810E948C008FE191E00E948C0489E142
:100B000091E0DF91CF911F910F91FF90EF90DF90D7
:100B1000CF90BF90AF909F908F907F906F905F909D
:100B20004F903F902F900C948C04DF91CF911F91A8
:100B30000F91FF90EF90DF90CF90BF90AF909F907C
:100B40008F907F906F905F904F903F902F9008957F
:100B50008F929F92AF92BF92CF92DF92EF92FF92CD
:100B60000F931F93CF93DF93CDB7DEB7A1970FB647
:100B7000F894DEBF0FBECDBF6C01990FEE08FF08E1
:100B8000F7FE29C08DE20E948C008C0122273327BA
:100B9000A9012C193D094E095F0919A2CE018196C0
:100BA0007C019AE0892E912CA12CB12CCA01B901AB
:100BB000A50194010E943E0B605DF70162937F01E5
:100BC000211531054105510589F7CF010E947A04AD
:100BD000800F911F1DC0A701960119A28E010F5D04
:100BE0001F4F8AE0C82ED12CE12CF12CCA01B9018B
:100BF000A70196010E943E0B605DF80162938F0190
:100C0000211531054105510589F7CF010E947A046C
:100C1000A1960FB6F894DEBF0FBECDBFDF91CF9186
:100C20001F910F91FF90EF90DF90CF90BF90AF900A
:100C30009F908F9008950E94B00D1F920F920FB653
:100C40000F9211242F933F934F935F936F937F9352
:100C50008F939F93AF93BF93EF93FF9385E392E0BE
:100C60000E940D01FF91EF91BF91AF919F918F91E4
:100C70007F916F915F914F913F912F910F900FBE98
:100C80000F901F9018951F920F920FB60F9211247C
:100C90002F938F939F93EF93FF93E0914502F091F1
:100CA00046028081E0914B02F0914C0282FD12C01D
:100CB000908180914E028F5F8F7320914F02821737
:100CC00051F0E0914E02F0E0EB5CFD4F958F809388
:100CD0004E0201C08081FF91EF919F918F912F91E2
:100CE0000F900FBE0F901F9018951F920F920FB686
:100CF0000F9211242F933F938F939F93AF93BF93A2
:100D000080918D0190918E01A0918F01B091900101
:100D100030918C0123E0230F2D3720F40196A11D83
:100D2000B11D05C026E8230F0296A11DB11D209319
:100D30008C0180938D0190938E01A0938F01B093CD
:100D400090018091910190919201A0919301B091B5
:100D500094010196A11DB11D809391019093920180
:100D6000A0939301B0939401BF91AF919F918F9104
:100D70003F912F910F900FBE0F901F9018951F92CB
:100D80000F920FB60F9211242F933F934F935F93BF
:100D90006F937F938F939F93AF93BF93EF93FF9343
:100DA00080918A0187FF05C010928500109284000F
:100DB0001BC020918A01022E000C330B80918B0105
:100DC00090E02817390784F480918A01082E000CDE
:100DD000990BFC01EE0FFF1F8E0F9F1FFC01EB56BE
:100DE000FE4F808186FD15C080918A018F5F8093C0
:100DF0008A0120918A01022E000C330B80918B0115
:100E000090E028173907C4F480918A018C3064F18E
:100E100013C080918A01082E000C990BFC01EE0F83
:100E2000FF1F8E0F9F1FFC01EB56FE4F808160E07D
:100E30008F730E94F301D8CF809184009091850038
:100E4000049680349C4918F480E49CE905C08091A4
:100E50008400909185000496909389008093880087
:100E60008FEF80938A013BC02091840030918500F0
:100E700080918A01082E000C990BFC01EE0FFF1FD8
:100E80008E0F9F1FFC01EB56FE4F81819281820FD6
:100E9000931F909389008093880080918A01082E87
:100EA000000C990BFC01EE0FFF1F8E0F9F1FFC0122
:100EB000EB56FE4F808186FF12C080918A01082E7A
:100EC000000C990BFC01EE0FFF1F8E0F9F1FFC0102
:100ED000EB56FE4F808161E08F730E94F301FF911A
:100EE000EF91BF91AF919F918F917F916F915F91A2
:100EF0004F913F912F910F900FBE0F901F9018951B
:100F00004F925F926F927F928F929F92AF92BF9219
:100F1000CF92DF92EF92FF920F931F93CF93DF93C5
:100F2000E5E3F2E01382128288EE93E0A0E0B0E005
:100F300084839583A683B78384E091E09183808343
:100F400085EC90E09587848784EC90E0978786878E
:100F500080EC90E0918B808B81EC90E0938B828B86
:100F600082EC90E0958B848B86EC90E0978B868B5F
:100F7000118E128E138E148E87EA93E00E944E0417
:100F8000C090A703D090A803E090A90385E793E061
:100F90000E944E04E4E7F3E082E68083C182D282BD
:100FA000E3828EE090E0958384838CE590E09783E4
:100FB00086838AE791E09187808789E090E0938734
:100FC000828780E392E0958784870CEF18E017878B
:100FD000068788E599E3A4EBBCE3808B918BA28B19
:100FE000B38B848B958BA68BB78B86EAC82E8BE947
:100FF000D82E84E4E82E8CE3F82EC08ED18EE28EBB
:10100000F38EC7E0D0E0D58FC48F81E793E00E94D4
:101010004E046090710370907203809073038FE3AD
:1010200093E00E944E04EEE3F3E083E78083618265
:10103000728283828FE090E09583848323E530E0A1
:10104000378326832CE231E0318720872BE030E0A4
:101050003387228726E732E03587248720ED37E083
:10106000378726874FE852EC65EF7CE3408B518B46
:10107000628B738B46EB53EF6DEF7CE3448B558BA8
:10108000668B778BC08ED18EE28EF38E958F848F98
:101090008BE393E00E944E0460903B0370903C030E
:1010A00080903D0389E093E00E944E04E8E0F3E085
:1010B00085E6808361827282838280E190E09583FD
:1010C000848380E690E09783868385E791E091872B
:1010D00080878AE090E09387828788E592E0958711
:1010E000848788E998E0978786879AE0892E97ED2C
:1010F000992E93EAA92E9CE3B92E808A918AA28A1E
:10110000B38A848A958AA68AB78AC08ED18EE28EE7
:10111000F38ED58FC48F85E093E00E944E044090FB
:101120000503509006036090070383ED92E00E9450
:101130004E04E2EDF2E087E78083418252826382CF
:1011400081E190E09583848388E590E097838683AE
:1011500084E891E09187808786E090E0938782879A
:1011600086E292E09587848717870687808A918A2E
:10117000A28AB38A848A958AA68AB78AC08ED18EBB
:10118000E28EF38ED58FC48FDF91CF911F910F9197
:10119000FF90EF90DF90CF90BF90AF909F908F9097
:1011A0007F906F905F904F900895789484B582609F
:1011B00084BD84B5816084BD85B5826085BD85B5FB
:1011C000816085BD80916E00816080936E00109279
:1011D00081008091810082608093810080918100F4
:1011E0008160809381008091800081608093800085
:1011F0008091B10084608093B1008091B0008160E3
:101200008093B00080917A00846080937A0080910E
:101210007A00826080937A0080917A008160809366
:101220007A0080917A00806880937A001092C100E1
:10123000E0914502F091460282E08083E091450210
:10124000F09146021082E0914102F0914202108238
:10125000E0914302F091440280E1808310924D02BC
:10126000E0914902F0914A0286E08083E0914702D2
:10127000F0914802808180618083E0914702F09183
:101280004802808188608083E0914702F0914802A3
:10129000808180688083E0914702F09148028081DC
:1012A0008F7D808360E08DE00E94230260E08CE00F
:1012B0000E94230260E088E00E9423028CE00E94EA
:1012C000CA010197D9F38DE00E94CA010197D9F3B1
:1012D00089E291E00E948C0489E191E00E948C04F3
:1012E000C8E78CE00E94CA01019719F4D0E0C3E678
:1012F00001C0D1E088E00E94CA01019751F1D111EB
:10130000F0CFC33621F0C03709F0F1C022C082E32C
:1013100091E00E948C0489E191E00E948C048CE0B1
:101320000E94CA010197D9F309EB11E0F80111827B
:10133000108213821282389622E0E133F207B9F765
:10134000C9EBD1E08DE00E94CA01019709F0D2C03B
:10135000F9CF89E691E00E948C0489E191E00E9436
:101360008C0488E00E94CA010197D9F3C9EBD1E04F
:101370008E0160E070E0CB01F80120813181232BE8
:1013800031F020E030E040E85FE30E94610B085F4D
:101390001F4FF2E001331F0779F76093310270931A
:1013A000320280933302909334020E946A0484E7ED
:1013B00093E00E94BE038EE393E00E94BE0388E0A8
:1013C00093E00E94BE0382ED92E00E94BE0300E023
:1013D00010E0B801012E000C880B990B0E947C0CC8
:1013E0002091310230913202409133025091340207
:1013F0000E94CD0B87FF47C010929D0310929C0363
:1014000010929E0310926703109266031092680375
:101410001092310310923003109232031092FB02AB
:101420001092FA021092FC0284E793E00E948E046C
:10143000882309F404C18EE393E00E948E0488237C
:1014400009F4FDC088E093E00E948E04882309F42B
:10145000F6C082ED92E00E948E04882309F4EFC06A
:1014600088E791E00E948C040F5F1F4FC8010E9423
:10147000A8058EE791E00E948C0489E191E00E942A
:101480008C042896A6CFE0917503F0E0CF01880F79
:10149000991FE80FF91FEB56FE4F80818F7B8083E9
:1014A000E0913F03F0E0CF01880F991FE80FF91F8B
:1014B000EB56FE4F80818F7B8083E0910903F0E043
:1014C000CF01880F991FE80FF91FEB56FE4F80815F
:1014D0008F7B8083E091D302F0E0CF01880F991FCA
:1014E000E80FF91FEB56FE4F80818F7B80830E94AF
:1014F0009701E4CE64EF71E080E090E00E949B02EF
:10150000FF24F3948CE00E94CA01019719F4E12CA6
:10151000F12C02C0EE24E3948DE00E94CA010197F1
:1015200019F50E946A0484E793E00E94D50299832A
:1015300088838EE393E00E94D5029B838A8388E0B0
:1015400093E00E94D5029D838C8382ED92E00E94FD
:10155000D5029F838E838CE491E00E948C0489E104
:1015600091E00E948C0402C0E110CCCF82E0C9322D
:10157000D80719F02896F110E5CE84E491E00E9496
:101580008C0489E191E00E948C04C9EBD1E0C12C6C
:10159000D12C760188819981892B51F020E030E0AF
:1015A00040E85FE3C701B6010E94610B6B017C015B
:1015B0002896E2E0C133DE0769F7C0E0D0E0BE0163
:1015C0000D2E000C880B990B0E947C0CA701960134
:1015D0000E94CD0B87FF8BCF83E591E00E948C04A6
:1015E0002196CE010E94A8058DE591E00E948C0411
:1015F000F801808191810E94A80587E691E00E9410
:101600008C04F801828193810E94A80587E691E00D
:101610000E948C04F801848195810E94A80587E6C8
:1016200091E00E948C04F801868197810E94A805B0
:1016300089E191E00E948C04085F1F4FC0CF688150
:10164000798184E793E00E94B1046A817B818EE313
:1016500093E00E94B1046C817D8188E093E00E9458
:10166000B1046E817F8182ED92E00E94B10462E05C
:1016700070E080E090E00E949B02D6CEA1E21A2E9C
:10168000AA1BBB1BFD010DC0AA1FBB1FEE1FFF1F26
:10169000A217B307E407F50720F0A21BB30BE40B76
:1016A000F50B661F771F881F991F1A9469F76095BD
:1016B0007095809590959B01AC01BD01CF01089577
:1016C0005058BB27AA270E94780B0C94F20C0E945A
:1016D000E40C38F00E94EB0C20F039F49F3F19F431
:1016E00026F40C94E10C0EF4E095E7FB0C94DB0C73
:1016F000E92F0E94030D58F3BA1762077307840796
:10170000950720F079F4A6F50C94250D0EF4E095DC
:101710000B2EBA2FA02D0B01B90190010C01CA01AB
:10172000A0011124FF27591B99F0593F50F4503E56
:1017300068F11A16F040A22F232F342F4427585F48
:10174000F3CF469537952795A795F0405395C9F760
:101750007EF41F16BA0B620B730B840BBAF0915018
:10176000A1F0FF0FBB1F661F771F881FC2F70EC0B7
:10177000BA0F621F731F841F48F48795779567958A
:10178000B795F7959E3F08F0B0CF9395880F08F076
:101790009927EE0F9795879508950E94B70C08F446
:1017A00081E008950E94E60B0C94F20C0E94EB0C71
:1017B00058F00E94E40C40F029F45F3F29F00C94AB
:1017C000DB0C51110C94260D0C94E10C0E94030DBE
:1017D00068F39923B1F3552391F3951B550BBB2760
:1017E000AA2762177307840738F09F5F5F4F220FA5
:1017F000331F441FAA1FA9F335D00E2E3AF0E0E89C
:1018000032D091505040E695001CCAF72BD0FE2FE5
:1018100029D0660F771F881FBB1F26173707480779
:10182000AB07B0E809F0BB0B802DBF01FF27935831
:101830005F4F3AF09E3F510578F00C94DB0C0C940E
:10184000260D5F3FE4F3983ED4F386957795679530
:10185000B795F7959F5FC9F7880F911D9695879566
:1018600097F90895E1E0660F771F881FBB1F621785
:1018700073078407BA0720F0621B730B840BBA0B43
:10188000EE1F88F7E09508950E944B0C6894B11103
:101890000C94260D08950E940B0D88F09F5798F028
:1018A000B92F9927B751B0F0E1F0660F771F881F65
:1018B000991F1AF0BA95C9F714C0B13091F00E947F
:1018C000250DB1E008950C94250D672F782F8827FA
:1018D000B85F39F0B93FCCF3869577956795B395A6
:1018E000D9F73EF490958095709561957F4F8F4F15
:1018F0009F4F0895E89409C097FB3EF4909580951A
:10190000709561957F4F8F4F9F4F9923A9F0F92FC5
:1019100096E9BB279395F695879577956795B79543
:10192000F111F8CFFAF4BB0F11F460FF1BC06F5F29
:101930007F4F8F4F9F4F16C0882311F096E911C03B
:10194000772321F09EE8872F762F05C0662371F05C
:1019500096E8862F70E060E02AF09A95660F771F70
:10196000881FDAF7880F9695879597F90895990F4C
:101970000008550FAA0BE0E8FEEF16161706E80759
:10198000F907C0F012161306E407F50798F0621B7A
:10199000730B840B950B39F40A2661F0232B242B4F
:1019A000252B21F408950A2609F4A140A6958FEF6E
:1019B000811D811D089597F99F6780E870E060E0C0
:1019C00008959FEF80EC089500240A9416161706D8
:1019D00018060906089500240A9412161306140620
:1019E00005060895092E0394000C11F4882352F083
:1019F000BB0F40F4BF2B11F460FF04C06F5F7F4F3B
:101A00008F4F9F4F089557FD9058440F551F59F021
:101A10005F3F71F04795880F97FB991F61F09F3FDB
:101A200079F087950895121613061406551FF2CF04
:101A30004695F1DF08C0161617061806991FF1CF54
:101A400086957105610508940895E894BB2766277B
:101A50007727CB0197F908950E94B70C08F48FEF10
:101A600008950E94440D0C94F20C0E94E40C38F08E
:101A70000E94EB0C20F0952311F00C94DB0C0C94DD
:101A8000E10C11240C94260D0E94030D70F3959F18
:101A9000C1F3950F50E0551F629FF001729FBB2765
:101AA000F00DB11D639FAA27F00DB11DAA1F649F01
:101AB0006627B00DA11D661F829F2227B00DA11DB4
:101AC000621F739FB00DA11D621F839FA00D611D3A
:101AD000221F749F3327A00D611D231F849F600D5B
:101AE000211D822F762F6A2F11249F5750409AF084
:101AF000F1F088234AF0EE0FFF1FBB1F661F771F10
:101B0000881F91505040A9F79E3F510580F00C94DA
:101B1000DB0C0C94260D5F3FE4F3983ED4F38695DE
:101B200077956795B795F795E7959F5FC1F7FE2B7A
:101B3000880F911D9695879597F90895991B79E0DF
:101B400004C0991F961708F0961B881F7A95C9F74D
:101B500080950895EE0FFF1F0590F491E02D0994F4
:0E1B600081E090E0F8940C94B50DF894FFCF5E
:101B6E00000000002E019700C6007501F700D50099
:101B7E00E900536572766F20000A00206E6F7420A4
:101B8E006172726976656421005374616E64627964
:101B9E00210050726F6772616D6D696E67204D6FB7
:101BAE006465210050726F6772616D2053617665B6
:101BBE00642100506F736974696F6E200020666532
:101BCE0065646261636B3A2000506C617962616397
:101BDE006B204D6F646521004D6F7665200020638C
:0A1BEE006F6D706C65746564210072
:107E0000112484B714BE81FFF0D085E080938100F7
:107E100082E08093C00088E18093C10086E0809377
:107E2000C20080E18093C4008EE0C9D0259A86E02C
:107E300020E33CEF91E0309385002093840096BBD3
:107E4000B09BFECF1D9AA8958150A9F7CC24DD24C4
:107E500088248394B5E0AB2EA1E19A2EF3E0BF2EE7
:107E6000A2D0813461F49FD0082FAFD0023811F036
:107E7000013811F484E001C083E08DD089C08234E0
:107E800011F484E103C0853419F485E0A6D080C0E4
:107E9000853579F488D0E82EFF2485D0082F10E0AE
:107EA000102F00270E291F29000F111F8ED06801E7
:107EB0006FC0863521F484E090D080E0DECF843638
:107EC00009F040C070D06FD0082F6DD080E0C81688
:107ED00080E7D80618F4F601B7BEE895C0E0D1E017
:107EE00062D089930C17E1F7F0E0CF16F0E7DF06D8
:107EF00018F0F601B7BEE89568D007B600FCFDCFD4
:107F0000A601A0E0B1E02C9130E011968C91119780
:107F100090E0982F8827822B932B1296FA010C0160
:107F200087BEE89511244E5F5F4FF1E0A038BF0790
:107F300051F7F601A7BEE89507B600FCFDCF97BE46
:107F4000E89526C08437B1F42ED02DD0F82E2BD052
:107F50003CD0F601EF2C8F010F5F1F4F84911BD097
:107F6000EA94F801C1F70894C11CD11CFA94CF0C13
:107F7000D11C0EC0853739F428D08EE10CD085E9AC
:107F80000AD08FE07ACF813511F488E018D01DD067
:107F900080E101D065CF982F8091C00085FFFCCF94
:107FA0009093C60008958091C00087FFFCCF809118
:107FB000C00084FD01C0A8958091C6000895E0E648
:107FC000F0E098E1908380830895EDDF803219F02E
:107FD00088E0F5DFFFCF84E1DECF1F93182FE3DFCA
:107FE0001150E9F7F2DF1F91089580E0E8DFEE27F6
:047FF000FF270994CA
:027FFE00040479
:0400000300007E007B
:00000001FF
